{
  "contractName": "StockData",
  "abi": [
    {
      "anonymous": false,
      "inputs": [
        {
          "indexed": false,
          "internalType": "string",
          "name": "symbol",
          "type": "string"
        },
        {
          "indexed": false,
          "internalType": "uint256",
          "name": "currentPrice",
          "type": "uint256"
        },
        {
          "indexed": false,
          "internalType": "string",
          "name": "name",
          "type": "string"
        }
      ],
      "name": "StockUpdated",
      "type": "event"
    },
    {
      "inputs": [
        {
          "internalType": "string",
          "name": "",
          "type": "string"
        }
      ],
      "name": "stocks",
      "outputs": [
        {
          "internalType": "string",
          "name": "name",
          "type": "string"
        },
        {
          "internalType": "uint256",
          "name": "currentPrice",
          "type": "uint256"
        }
      ],
      "stateMutability": "view",
      "type": "function",
      "constant": true
    },
    {
      "inputs": [
        {
          "internalType": "string",
          "name": "_symbol",
          "type": "string"
        },
        {
          "internalType": "string",
          "name": "_name",
          "type": "string"
        },
        {
          "internalType": "uint256",
          "name": "_currentPrice",
          "type": "uint256"
        },
        {
          "internalType": "uint256[]",
          "name": "_historicalPrices",
          "type": "uint256[]"
        }
      ],
      "name": "updateStockData",
      "outputs": [],
      "stateMutability": "nonpayable",
      "type": "function"
    },
    {
      "inputs": [
        {
          "internalType": "string",
          "name": "_symbol",
          "type": "string"
        }
      ],
      "name": "getStockData",
      "outputs": [
        {
          "components": [
            {
              "internalType": "string",
              "name": "name",
              "type": "string"
            },
            {
              "internalType": "uint256",
              "name": "currentPrice",
              "type": "uint256"
            },
            {
              "internalType": "uint256[]",
              "name": "historicalPrices",
              "type": "uint256[]"
            }
          ],
          "internalType": "struct StockData.StockInfo",
          "name": "",
          "type": "tuple"
        }
      ],
      "stateMutability": "view",
      "type": "function",
      "constant": true
    }
  ],
  "bytecode": "0x6080604052348015600e575f80fd5b50610dbf8061001c5f395ff3fe608060405234801561000f575f80fd5b506004361061003f575f3560e01c80632efae33e146100435780637d61e7aa14610074578063c5b8bf2e14610090575b5f80fd5b61005d600480360381019061005891906105bc565b6100c0565b60405161006b92919061067b565b60405180910390f35b61008e60048036038101906100899190610785565b61017d565b005b6100aa60048036038101906100a59190610849565b6102c0565b6040516100b791906109e7565b60405180910390f35b5f818051602081018201805184825260208301602085012081835280955050505050505f91509050805f0180546100f690610a34565b80601f016020809104026020016040519081016040528092919081815260200182805461012290610a34565b801561016d5780601f106101445761010080835404028352916020019161016d565b820191905f5260205f20905b81548152906001019060200180831161015057829003601f168201915b5050505050908060010154905082565b604051806060016040528086868080601f0160208091040260200160405190810160405280939291908181526020018383808284375f81840152601f19601f8201169050808301925050505050505081526020018481526020018383808060200260200160405190810160405280939291908181526020018383602002808284375f81840152601f19601f820116905080830192505050505050508152505f888860405161022c929190610a92565b90815260200160405180910390205f820151815f01908161024d9190610c47565b506020820151816001015560408201518160020190805190602001906102749291906103e9565b509050507f4b5839a0cad71a58e5a9500e0381308f553821d32cb0ce361c892a4978a2c7c887878588886040516102af959493929190610d42565b60405180910390a150505050505050565b6102c8610434565b5f83836040516102d9929190610a92565b90815260200160405180910390206040518060600160405290815f8201805461030190610a34565b80601f016020809104026020016040519081016040528092919081815260200182805461032d90610a34565b80156103785780601f1061034f57610100808354040283529160200191610378565b820191905f5260205f20905b81548152906001019060200180831161035b57829003601f168201915b5050505050815260200160018201548152602001600282018054806020026020016040519081016040528092919081815260200182805480156103d857602002820191905f5260205f20905b8154815260200190600101908083116103c4575b505050505081525050905092915050565b828054828255905f5260205f20908101928215610423579160200282015b82811115610422578251825591602001919060010190610407565b5b5090506104309190610454565b5090565b6040518060600160405280606081526020015f8152602001606081525090565b5b8082111561046b575f815f905550600101610455565b5090565b5f604051905090565b5f80fd5b5f80fd5b5f80fd5b5f80fd5b5f601f19601f8301169050919050565b7f4e487b71000000000000000000000000000000000000000000000000000000005f52604160045260245ffd5b6104ce82610488565b810181811067ffffffffffffffff821117156104ed576104ec610498565b5b80604052505050565b5f6104ff61046f565b905061050b82826104c5565b919050565b5f67ffffffffffffffff82111561052a57610529610498565b5b61053382610488565b9050602081019050919050565b828183375f83830152505050565b5f61056061055b84610510565b6104f6565b90508281526020810184848401111561057c5761057b610484565b5b610587848285610540565b509392505050565b5f82601f8301126105a3576105a2610480565b5b81356105b384826020860161054e565b91505092915050565b5f602082840312156105d1576105d0610478565b5b5f82013567ffffffffffffffff8111156105ee576105ed61047c565b5b6105fa8482850161058f565b91505092915050565b5f81519050919050565b5f82825260208201905092915050565b8281835e5f83830152505050565b5f61063582610603565b61063f818561060d565b935061064f81856020860161061d565b61065881610488565b840191505092915050565b5f819050919050565b61067581610663565b82525050565b5f6040820190508181035f830152610693818561062b565b90506106a2602083018461066c565b9392505050565b5f80fd5b5f80fd5b5f8083601f8401126106c6576106c5610480565b5b8235905067ffffffffffffffff8111156106e3576106e26106a9565b5b6020830191508360018202830111156106ff576106fe6106ad565b5b9250929050565b61070f81610663565b8114610719575f80fd5b50565b5f8135905061072a81610706565b92915050565b5f8083601f84011261074557610744610480565b5b8235905067ffffffffffffffff811115610762576107616106a9565b5b60208301915083602082028301111561077e5761077d6106ad565b5b9250929050565b5f805f805f805f6080888a0312156107a05761079f610478565b5b5f88013567ffffffffffffffff8111156107bd576107bc61047c565b5b6107c98a828b016106b1565b9750975050602088013567ffffffffffffffff8111156107ec576107eb61047c565b5b6107f88a828b016106b1565b9550955050604061080b8a828b0161071c565b935050606088013567ffffffffffffffff81111561082c5761082b61047c565b5b6108388a828b01610730565b925092505092959891949750929550565b5f806020838503121561085f5761085e610478565b5b5f83013567ffffffffffffffff81111561087c5761087b61047c565b5b610888858286016106b1565b92509250509250929050565b5f82825260208201905092915050565b5f6108ae82610603565b6108b88185610894565b93506108c881856020860161061d565b6108d181610488565b840191505092915050565b6108e581610663565b82525050565b5f81519050919050565b5f82825260208201905092915050565b5f819050602082019050919050565b5f61091f83836108dc565b60208301905092915050565b5f602082019050919050565b5f610941826108eb565b61094b81856108f5565b935061095683610905565b805f5b8381101561098657815161096d8882610914565b97506109788361092b565b925050600181019050610959565b5085935050505092915050565b5f606083015f8301518482035f8601526109ad82826108a4565b91505060208301516109c260208601826108dc565b50604083015184820360408601526109da8282610937565b9150508091505092915050565b5f6020820190508181035f8301526109ff8184610993565b905092915050565b7f4e487b71000000000000000000000000000000000000000000000000000000005f52602260045260245ffd5b5f6002820490506001821680610a4b57607f821691505b602082108103610a5e57610a5d610a07565b5b50919050565b5f81905092915050565b5f610a798385610a64565b9350610a86838584610540565b82840190509392505050565b5f610a9e828486610a6e565b91508190509392505050565b5f819050815f5260205f209050919050565b5f6020601f8301049050919050565b5f82821b905092915050565b5f60088302610b067fffffffffffffffffffffffffffffffffffffffffffffffffffffffffffffffff82610acb565b610b108683610acb565b95508019841693508086168417925050509392505050565b5f819050919050565b5f610b4b610b46610b4184610663565b610b28565b610663565b9050919050565b5f819050919050565b610b6483610b31565b610b78610b7082610b52565b848454610ad7565b825550505050565b5f90565b610b8c610b80565b610b97818484610b5b565b505050565b5b81811015610bba57610baf5f82610b84565b600181019050610b9d565b5050565b601f821115610bff57610bd081610aaa565b610bd984610abc565b81016020851015610be8578190505b610bfc610bf485610abc565b830182610b9c565b50505b505050565b5f82821c905092915050565b5f610c1f5f1984600802610c04565b1980831691505092915050565b5f610c378383610c10565b9150826002028217905092915050565b610c5082610603565b67ffffffffffffffff811115610c6957610c68610498565b5b610c738254610a34565b610c7e828285610bbe565b5f60209050601f831160018114610caf575f8415610c9d578287015190505b610ca78582610c2c565b865550610d0e565b601f198416610cbd86610aaa565b5f5b82811015610ce457848901518255600182019150602085019450602081019050610cbf565b86831015610d015784890151610cfd601f891682610c10565b8355505b6001600288020188555050505b505050505050565b5f610d21838561060d565b9350610d2e838584610540565b610d3783610488565b840190509392505050565b5f6060820190508181035f830152610d5b818789610d16565b9050610d6a602083018661066c565b8181036040830152610d7d818486610d16565b9050969550505050505056fea2646970667358221220740d17d600e5f09c9304019b252442ac618101e5b29d09ccc43b74ffe51fcf9464736f6c63430008190033",
  "immutableReferences": {},
  "source": "// SPDX-License-Identifier: MIT\r\npragma solidity ^0.8.0;\r\n\r\ncontract StockData {\r\n    struct StockInfo {\r\n        string name;\r\n        uint256 currentPrice;\r\n        uint256[] historicalPrices;\r\n    }\r\n\r\n    mapping(string => StockInfo) public stocks;\r\n\r\n    event StockUpdated(string symbol, uint256 currentPrice, string name);\r\n\r\n    function updateStockData(\r\n        string calldata _symbol,\r\n        string calldata _name,\r\n        uint256 _currentPrice,\r\n        uint256[] calldata _historicalPrices\r\n    ) external {\r\n        stocks[_symbol] = StockInfo({\r\n            name: _name,\r\n            currentPrice: _currentPrice,\r\n            historicalPrices: _historicalPrices\r\n        });\r\n        emit StockUpdated(_symbol, _currentPrice, _name);\r\n    }\r\n\r\n    function getStockData(string calldata _symbol) external view returns (StockInfo memory) {\r\n        return stocks[_symbol];\r\n    }\r\n}\r\n",
  "sourcePath": "D:\\myprojects\\analysisAPI\\AnalysisBlockchainAPI\\contracts\\StockData.sol",
  "compiler": {
    "name": "solc",
    "version": "0.8.25+commit.b61c2a91.Emscripten.clang"
  },
  "schemaVersion": "3.4.16",
  "updatedAt": "2024-05-12T16:10:51.573Z",
  "networkType": "ethereum",
  "devdoc": {
    "kind": "dev",
    "methods": {},
    "version": 1
  },
  "userdoc": {
    "kind": "user",
    "methods": {},
    "version": 1
  }
}